{
  "contractName": "DocAuth",
  "abi": [
    {
      "inputs": [],
      "payable": false,
      "stateMutability": "nonpayable",
      "type": "constructor"
    },
    {
      "constant": false,
      "inputs": [
        {
          "name": "uid",
          "type": "string"
        },
        {
          "name": "datahash",
          "type": "string"
        }
      ],
      "name": "addProof",
      "outputs": [],
      "payable": false,
      "stateMutability": "nonpayable",
      "type": "function"
    },
    {
      "constant": true,
      "inputs": [
        {
          "name": "datahash",
          "type": "string"
        }
      ],
      "name": "getProof",
      "outputs": [
        {
          "name": "id",
          "type": "string"
        },
        {
          "name": "sender",
          "type": "address"
        },
        {
          "name": "timestamp",
          "type": "uint256"
        }
      ],
      "payable": false,
      "stateMutability": "view",
      "type": "function"
    }
  ],
  "bytecode": "0x608060405234801561001057600080fd5b5033600160006101000a81548173ffffffffffffffffffffffffffffffffffffffff021916908373ffffffffffffffffffffffffffffffffffffffff16021790555061076c806100616000396000f3fe60806040526004361061004c576000357c0100000000000000000000000000000000000000000000000000000000900463ffffffff1680637bb0350c14610051578063d57763a1146101b0575b600080fd5b34801561005d57600080fd5b506101ae6004803603604081101561007457600080fd5b810190808035906020019064010000000081111561009157600080fd5b8201836020820111156100a357600080fd5b803590602001918460018302840111640100000000831117156100c557600080fd5b91908080601f016020809104026020016040519081016040528093929190818152602001838380828437600081840152601f19601f8201169050808301925050505050505091929192908035906020019064010000000081111561012857600080fd5b82018360208201111561013a57600080fd5b8035906020019184600183028401116401000000008311171561015c57600080fd5b91908080601f016020809104026020016040519081016040528093929190818152602001838380828437600081840152601f19601f82011690508083019250505050505050919291929050505061032b565b005b3480156101bc57600080fd5b50610276600480360360208110156101d357600080fd5b81019080803590602001906401000000008111156101f057600080fd5b82018360208201111561020257600080fd5b8035906020019184600183028401116401000000008311171561022457600080fd5b91908080601f016020809104026020016040519081016040528093929190818152602001838380828437600081840152601f19601f820116905080830192505050505050509192919290505050610449565b60405180806020018473ffffffffffffffffffffffffffffffffffffffff1673ffffffffffffffffffffffffffffffffffffffff168152602001838152602001828103825285818151815260200191508051906020019080838360005b838110156102ee5780820151818401526020810190506102d3565b50505050905090810190601f16801561031b5780820380516001836020036101000a031916815260200191505b5094505050505060405180910390f35b610333610663565b6060604051908101604052808481526020013373ffffffffffffffffffffffffffffffffffffffff168152602001428152509050806000836040518082805190602001908083835b6020831015156103a0578051825260208201915060208101905060208303925061037b565b6001836020036101000a038019825116818451168082178552505050505050905001915050908152602001604051809103902060008201518160000190805190602001906103ef92919061069b565b5060208201518160010160006101000a81548173ffffffffffffffffffffffffffffffffffffffff021916908373ffffffffffffffffffffffffffffffffffffffff16021790555060408201518160020155905050505050565b60606000806000846040518082805190602001908083835b6020831015156104865780518252602082019150602081019050602083039250610461565b6001836020036101000a03801982511681845116808217855250505050505090500191505090815260200160405180910390206000016000856040518082805190602001908083835b6020831015156104f457805182526020820191506020810190506020830392506104cf565b6001836020036101000a038019825116818451168082178552505050505050905001915050908152602001604051809103902060010160009054906101000a900473ffffffffffffffffffffffffffffffffffffffff166000866040518082805190602001908083835b602083101515610583578051825260208201915060208101905060208303925061055e565b6001836020036101000a038019825116818451168082178552505050505050905001915050908152602001604051809103902060020154828054600181600116156101000203166002900480601f01602080910402602001604051908101604052809291908181526020018280546001816001161561010002031660029004801561064f5780601f106106245761010080835404028352916020019161064f565b820191906000526020600020905b81548152906001019060200180831161063257829003601f168201915b505050505092509250925092509193909250565b60606040519081016040528060608152602001600073ffffffffffffffffffffffffffffffffffffffff168152602001600081525090565b828054600181600116156101000203166002900490600052602060002090601f016020900481019282601f106106dc57805160ff191683800117855561070a565b8280016001018555821561070a579182015b828111156107095782518255916020019190600101906106ee565b5b509050610717919061071b565b5090565b61073d91905b80821115610739576000816000905550600101610721565b5090565b9056fea165627a7a7230582029a02cf520fb27f77937955afb83a7f5950d81c21e4d3336b68a8e2f38ffd4040029",
  "source": "pragma solidity ^0.5.0;\n\ncontract DocAuth {\n\n    struct Proof {\n        string id;\n        address sender;\n        uint timestamp;\n    }\n\n    mapping (string => Proof) proofs; \n    address owner;\n  \n    constructor() public {\n        owner = msg.sender;\n    }\n\n    function addProof(string memory uid, string memory datahash) public {\n        Proof memory newProof = Proof(\n            uid,       // object hash\n            msg.sender,     // signer address\n            now             // current timestamp\n        );\n        proofs[datahash] = newProof;\n    }\n\n    function getProof(string memory datahash) public view returns (string memory id, address sender, uint timestamp) {\n        return (\n            proofs[datahash].id,\n            proofs[datahash].sender,\n            proofs[datahash].timestamp\n        );\n    }\n}",
  "sourcePath": "/Users/lucas/Desktop/SukuLab/doc-authenticator/blockchain/contracts/Docauth.sol",
  "compiler": {
    "name": "solc",
    "version": "0.5.0+commit.1d4f565a.Emscripten.clang"
  },
  "schemaVersion": "3.0.1",
  "updatedAt": "2019-01-28T06:47:02.411Z",
  "devdoc": {
    "methods": {}
  },
  "userdoc": {
    "methods": {}
  }
}